S01B00006563653239355F4932435F7475746F7269616C2E737265634C
S11300000C943E000C945B000C945B000C945B001D
S11300100C945B000C945B000C945B000C945B00F0
S11300200C945B000C945B000C945B000C945B00E0
S11300300C945B000C945B000C945B000C945B00D0
S11300400C945B000C945B000C945B000C945B00C0
S11300500C945B000C945B000C945B000C945B00B0
S11300600C945B000C945B000C945B000C945B00A0
S11300700C945B000C945B000C945B0011241FBE79
S1130080CFEFD8E0DEBFCDBF11E0A0E0B1E0E0EEFD
S1130090F8E002C005900D92A032B107D9F721E033
S11300A0A0E2B1E001C01D92A232B207E1F70E94C2
S11300B021010C946E040C94000081E08093B9003B
S11300C08093B80084E08093BC00089584EA809310
S11300D0BC008091BC008823E4F78091B9000895A6
S11300E084E98093BC0008958093BB0084E88093E6
S11300F0BC008091BC008823E4F78091B900089586
S1130100CF93DF93D82FC62F0E9466008D2F0E94B5
S1130110740080E00E9474008C2F0E9474000E947E
S11301207000DF91CF910895CF93DF93D82FC62F1E
S11301300E9466008D2F0E94740080E40E94740067
S11301408C2F0E9474000E947000DF91CF9108955B
S113015061E088E70E9480006AE388E70E948000EB
S113016069E088E70E94800066E088E70E948000DA
S11301706EE188E70E94800069E388E70E948000BE
S11301806BE188E70E9480006EE688E70E948000A9
S113019067E588E70E9480006AE788E70E9480009C
S11301A068E388E70E9480006FE088E70E9480008F
S11301B061E088E70E9480000895EF92FF920F9318
S11301C01F93CF93DF937C01C0E0D0E02CC08091DB
S11301D02001909121016AE070E00E944604892B7D
S11301E0E1F48091000190910101803E910559F460
S11301F080E890E0909301018093000161E088E73A
S11302000E94800005C080969093010180930001B4
S11302106091000188E70E948000F801608188E70E
S11302200E949400219687010C0F1D1FF801808104
S11302308111CDCFDF91CF911F910F91FF90EF905E
S11302400895CF93DF93CDB7DEB7A4970FB6F89494
S1130250DEBF0FBECDBF0F2EFFE05F2EF02D51B8D5
S11302608FE097E20197F1F700C0000082B182B9F4
S11302709FEF21EE44E0915020404040E1F700C060
S1130280000082B1816082B98FE097E20197F1F7B3
S113029000C000000E945D000E94A80054B82224FF
S11302A023943324339444244394552453948FE166
S11302B09EE40197F1F700C000008EEF85B98FE04E
S11302C097E20197F1F700C00000252D30E0C90145
S11302D08095909543B14295417049831A82498132
S11302E05A8184239523892B19F0552453941BC0D8
S11302F083B1829581708B871C868B859C858095C4
S1130300909528233923232B71F08091200190911B
S113031021010196909321018093200182E091E0D4
S11303200E94DD00512C242D30E0C9018095909568
S113033043B145FB442740F94B831C824B815C81CC
S113034084239523892B19F0442443941CC083B13E
S113035085FB882780F98D871E868D859E858095EF
S1130360909528233923232B71F0809120019091BB
S113037021010196909321018093200184E091E072
S11303800E94DD00412C232D30E0C9018095909519
S113039043B146FB442740F94D831E824D815E8163
S11303A084239523892B19F0332433941CC083B1FF
S11303B086FB882780F98F87188A8F85988980958E
S11303C0909528233923232B71F08091200190915B
S11303D021010196909321018093200186E091E010
S11303E00E94DD00312C222D30E0A901409550956A
S11303F083B1881F8827881F90E084239523892B45
S113040019F02224239419C083B1881F8827881FD8
S113041090E08095909528233923232B71F08091C7
S11304202001909121010196909321018093200154
S113043088E091E00E94DD00212C8BEF85B98FE0EC
S113044097E20197F1F700C00000252D30E0C901C3
S11304508095909543B1429541704F8318864F81A2
S1130460588584239523892B19F0552453941BC054
S113047083B182958170898B1A8A89899A8980953A
S1130480909528233923232B71F08091200190919A
S11304902101019690932101809320018AE091E04B
S11304A00E94DD00512C242D30E0C90180959095E7
S11304B043B145FB442740F949871A8649855A8543
S11304C084239523892B19F0442443941CC083B1BD
S11304D085FB882780F98B8B1C8A8B899C89809566
S11304E0909528233923232B71F08091200190913A
S11304F02101019690932101809320018CE091E0E9
S11305000E94DD00412C232D30E0C9018095909597
S113051043B146FB662460F8712C86219721892B10
S113052019F0332433941CC083B186FB882780F9E7
S11305308D8B1E8A8D899E898095909528233923D9
S1130540232B71F0809120019091210101969093C9
S11305502101809320018EE091E00E94DD00312C86
S1130560222D30E0A9014095509583B1881F88273A
S1130570881F90E084239523892B19F02224239447
S113058019C083B1881F8827881F90E080959095B3
S113059028233923232B71F080912001909121018C
S11305A00196909321018093200180E191E00E94C3
S11305B0DD00212C8CEF85B98FE097E20197F1F7EC
S11305C000C00000252D30E0C9018095909543B10D
S11305D044FB882480F8912C88219921892B19F0D7
S11305E05524539412C083B1829581708F8B188ED9
S11305F08F89988D8095909528233923232B29F072
S113060061E088E70E948000512C242D30E0C9016C
S11306108095909543B145FB442740F94BA31CA218
S11306204BA15CA184239523892B19F04424439482
S11306301CC083B185FB882780F9898F1A8E898D28
S11306409A8D8095909528233923232B71F08091DE
S11306502001909121010196909321018093200122
S113066082E191E00E94DD00412C232D30E0C9019C
S11306708095909543B146FB002700F910E0802354
S11306809123892B19F0332433941CC083B186FB46
S1130690882780F98B8F1C8E8B8D9C8D80959095EF
S11306A028233923232B71F080912001909121017B
S11306B00196909321018093200184E191E00E94AE
S11306C0DD00312C222D30E0A9014095509583B1F5
S11306D0881F8827881F90E084239523892B19F08D
S11306E02224239419C083B1881F8827881F90E08F
S11306F08095909528233923232B71F08091200134
S1130700909121010196909321018093200186E12B
S113071091E00E94DD00212C87EF85B98FE097E2FC
S11307200197F1F700C00000252D30E0C901809544
S1130730909543B144FBEE24E0F8F12C8E219F21E7
S1130740892B19F0552453941BC083B18295817071
S11307508D8F1E8E8D8D9E8D8095909528233923A7
S1130760232B71F0809120019091210101969093A7
S113077021018093200188E191E00E94DD00512C49
S1130780242D30E0C9018095909543B145FBCC24DC
S1130790C0F8D12C8C219D21892B19F04424439439
S11307A01CC083B185FB882780F98F8F18A28F8D99
S11307B098A18095909528233923232B71F080915B
S11307C020019091210101969093210180932001B1
S11307D08AE191E00E94DD00412C232D30E0C90123
S11307E08095909543B146FBAA24A0F8B12C8A21A8
S11307F09B21892B19F0332433941CC083B186FBCD
S1130800882780F989A31AA289A19AA18095909535
S113081028233923232B71F0809120019091210109
S1130820019690932101809320018CE191E00E9434
S1130830DD00312C222D30E0A9014095509583B183
S1130840881F8827881F90E084239523892B19F01B
S11308502224239432CD83B1881F8827881F90E0F7
S11308608095909528233923232B09F426CD809154
S11308702001909121010196909321018093200100
S11308808EE191E00E94DD00212C17CD97FB072E0D
S113089016F4009407D077FD09D00E945A0407FC8F
S11308A005D03EF4909581959F4F0895709561957C
S11308B07F4F0895AA1BBB1B51E107C0AA1FBB1F92
S11308C0A617B70710F0A61BB70B881F991F5A95D8
S11308D0A9F780959095BC01CD010895F894FFCFB8
S11308E080004400230030002A0042003600350016
S11308F03400390038003700410033003200310041
S9030000FC
